:1000000060C184C1DFC982C181C192C97FC17EC183
:100010007DC17CC17BC17AC179C178C177C1000043
:10002000000000005C000000000006000600000068
:10003000287C287C28005C54FE547400442010085E
:1000400044002854542050000600000000003844AA
:100050000000000044380000000002070200000019
:1000600010107C101000C0000000000010101010D4
:10007000100040000000000060100C0000007C64D4
:10008000544C7C00487C40000000645454544800A8
:10009000445454546C003C20702020005C54545450
:1000A00024007C5454547400040464140C007C54E4
:1000B00054547C005C5454547C0044000000000004
:1000C000C400000000001028440000002828282850
:1000D00028004428100000000804540800007C4454
:1000E00054545C007C2424247C007C5454546C00C4
:1000F0007C44444444007C44444438007C5454547C
:1001000044007C14141404007C44445474007C1097
:1001100010107C0044447C444400604040447C0017
:100120007C10102844007C40404040007C081008AF
:100130007C007C0810207C003844444438007C1447
:10014000141408003C2464243C007C14141468003B
:100150005C545454740004047C0404007C4040400B
:100160007C000C3040300C003C4030403C004428C7
:10017000102844000C1060100C004464544C4400DF
:100180007C44000000000C1060000000447C000073
:1001900000000001000100004040404040400001DC
:1001A000000000007C2424247C007C5454546C0007
:1001B0007C44444444007C44444438007C545454BB
:1001C00044007C14141404007C44445474007C10D7
:1001D00010107C0044447C444400604040447C0057
:1001E0007C10102844007C40404040007C081008EF
:1001F0007C007C0810207C003844444438007C1487
:10020000141408003C2464243C007C14141468007A
:100210005C545454740004047C0404007C4040404A
:100220007C000C3040300C003C4030403C00442806
:10023000102844000C1060100C004464544C44001E
:10024000107C440000006C0000000000447C1000A2
:10025000000002010201000000000000360001025F
:100260000000040000000000C8A1A81FDA028D14DD
:10027000204D487A20202020002020205244530086
:10028000204D6F6E6F200053746572656F0054755A
:100290006E65640020566F6C3A00525353493A0021
:1002A00000000000380000000000370002020202D7
:1002B00002020202020201020408102020041008B7
:1002C000510C11241FBECFE5D2E0DEBFCDBF10E040
:1002D000A0E6B0E0EEE6FFE102C005900D92A03F7F
:1002E000B107D9F721E0A0EFB0E001C01D92A83E10
:1002F000B207E1F711E0C1E6D1E003C02197FE01AA
:1003000042DBC036D107D1F791D82FCE79CEE0911C
:10031000D401E13150F4EF5FE093D401F0E0EB520F
:10032000FE4F808381E090E0089590E080E00895A2
:10033000E091CD01A1E0AE0FB0E0AB52BE4F8C9189
:1003400090E0EE5FE093CD01982F8827F0E0EB522C
:10035000FE4F2081820F911D0895CF93C82F892FC2
:10036000D6DF8C2FCF91D3CFCF93DF9390E0FC01DA
:10037000EA54FD4F249184559D4FFC0184918823BC
:10038000C1F090E0880F991FFC01EA55FD4FC5911F
:10039000D491FC01E056FD4FA591B4919FB7F8941C
:1003A0003881822F809583238883EC91E22BEC9314
:1003B0009FBFDF91CF910895FC01758B648B0895E9
:1003C000AF92BF92CF92DF92EF92FF920F931F9363
:1003D000CF93DF936C017B018B01040F151FEB01A1
:1003E0005E01AE18BF08C017D10759F06991D60158
:1003F000ED91FC910190F081E02DC6010995892BCA
:1004000079F7C501DF91CF911F910F91FF90EF9088
:10041000DF90CF90BF90AF90089590E0FC01E25A3A
:10042000FD4F2491FC01EA54FD4F3491FC01E45549
:10043000FD4FE491EE2321F1222329F02230E9F04F
:1004400080F42130B1F0F0E0EE0FFF1FE85AFD4FCD
:10045000A591B491EC91E32381E090E099F480E0E0
:100460000895233011F0243071F78CB58F7D8CBD49
:10047000EACF8AB58F778ABDE6CF8AB58F7DFBCF6D
:1004800080E090E008953FB7F8948091F700909154
:10049000F800A091F900B091FA0022B708B601FE69
:1004A00005C02F3F19F00196A11DB11D3FBFBA2F06
:1004B000A92F982F8827BC01CD01620F711D811DC6
:1004C000911D42E0660F771F881F991F4A95D1F74B
:1004D00008958F929F92AF92BF92CF92DF92EF9248
:1004E000FF924B015C01CFDF6B017C01CCDF6C190B
:1004F0007D098E099F09683E734081059105B0F31F
:1005000021E0821A9108A108B10888EEC80E83E0A4
:10051000D81EE11CF11C81149104A104B10431F72F
:10052000FF90EF90DF90CF90BF90AF909F908F9013
:100530000895E091F400F091F5000994E091F20043
:10054000F091F3000994E091F000F091F10009942A
:10055000CF93C82FF3DF811107C0EBDFF4DF80E416
:10056000EDDF8C2FCF91EACFCF910895ECDF80E0C3
:10057000E5CFCF93C091610080E2C827C0936100AE
:10058000F5DF8C2FDBDFD5DF8091600094E08927D9
:1005900080936000CF9108951F93CF93DF93C82F6E
:1005A000162FD62FD77080916000D82BDFDF8D2FCC
:1005B000C5DF8C2F82958F708061C0DF8C2F8F708C
:1005C000BDDFB7DFC093CF011093CE01DF91CF9194
:1005D0001F9108950F931F93CF93DF93C0E010E80E
:1005E0006C2F80E0D9DF8091CF01012F081B61F0D3
:1005F0001093CF01A8DF80E4A1DFD0E080E0A8DF86
:10060000DF5F0D13FBCF95DFCF5FC43049F760E0AC
:1006100080E0DF91CF911F910F91BECF8091CE01ED
:10062000860F24E030E0261B31098217130609F0FB
:1006300034F48093CE016091CE0180E0ADCF84E0B0
:10064000861BF7CFBF92CF92DF92EF92FF920F936C
:100650001F93CF93DF93E091FD00F091FE00309760
:1006600041F06D3031F0D62FC3816A3071F46C2FB8
:10067000D5DF81E090E0DF91CF911F910F91FF9046
:10068000EF90DF90CF90BF900895B2804091CF015E
:10069000EB2CF12C20E830E02E193F09421713060D
:1006A00019F014F06C2FBADFE091FD00F091FE001C
:1006B00024818C2F90E0B70141D9BC014D2F421B02
:1006C000550BCA013BD98C01DC2F3DDF80E436DFBE
:1006D000C801282F201B2B1588F46C015FEFC51A69
:1006E000D50AE091FD00F091FE000190F081E02D2F
:1006F000E80FF91F84912CDFC601EBCF0E0D1F1DF3
:1007000018DF8091CF01C13031F48B0D8093CF0180
:10071000D150D9F6AECF6091CE016F5FD23010F0DC
:100720003BDFF6CF6C1B8B0DFBCF0F931F93CF934B
:10073000DF938C01D0E0C0E0F801EC0FFD1F649165
:10074000662339F080ED91E07DDF892B11F0219651
:10075000F3CFCE01DF91CF911F910F9108950895AE
:1007600090E080E00895FC0164830895CF93DF93C7
:1007700000D000D0CDB7DEB7DC01ED91FC9100A830
:10078000F1A9E02DBE016F5F7F4F09950F900F908B
:100790000F900F90DF91CF910895CF93DF9300D00A
:1007A00000D000D01F92CDB7DEB7DC01ED91FC91F7
:1007B00006A4F7A5E02DBE016F5F7F4F0995279630
:1007C0000FB6F894DEBF0FBECDBFDF91CF91089575
:1007D000FC0163830895DC015496ED91FC91309700
:1007E00049F030E020E050E040E070E060E090E070
:1007F00080E009940895FC01828993890895FC01A1
:10080000808991890895FC01868597850895FC016A
:100810008285938508950F931F93CF93DF93EC0107
:100820008A01E881F981048CF58DE02D0995E88134
:10083000F98100A0F1A1E02DB801CE01DF91CF91A7
:100840001F910F910994FC0181850895FC01808519
:100850000895FC0187810895FC0186810895FC01BB
:1008600085810895FC016130710519F4518F408F25
:1008700008956330710531F4141615065CF4578B36
:10088000468B08956430710529F41416150614F486
:10089000538F428F08950895C09AC29ABA9AB89A0F
:1008A0008FEF8FB98AE28DB980EF8EB908951092DB
:1008B000D40188E78093D50181E0089528DD21E007
:1008C000892B09F420E0822F0895FC01019000207B
:1008D000E9F73197AF01481B590BBC0180ED91E05E
:1008E0006FCD9FEF980F9831C8F49FEF960F9B3311
:1008F000A8F41F926F931F928F9382E690E09F93CC
:100900008F9385E791E09F938F935ED88DB79EB7C5
:1009100008960FB6F8949EBF0FBE8DBF0895CF9373
:10092000DF93EC016DE070E034D8009779F0FC01C2
:10093000EC1BFD0BE0930501EE3340F4EC0FFD2FB3
:10094000F11D80E2808381838283138281E0809322
:100950007401DF91CF910895DF92EF92FF920F9390
:100960001F93CF93DF938C01EB01D42EDC01ED912B
:10097000FC91068CF78DE02D09957C01D801ED9155
:10098000FC9102A0F3A1E02DC8010995209789F1FF
:10099000BAE0BD1570F5188221E0E21AF108A2E074
:1009A000EA16F10430F5FE0125E00AE010E030E23D
:1009B0002150243011F00097D1F0B801D0D7805DDC
:1009C0008483CB0131972111F3CF8C818D838B816F
:1009D0008C838EE28B8367EC70E0CE010696DF910C
:1009E000CF911F910F91FF90EF90DF90E6C7348376
:1009F000E9CFDF91CF911F910F91FF90EF90DF90A2
:100A00000895CF93DF93DC01FB0184E0EB011992A1
:100A10008A95E9F715968C911597808318968C9195
:100A20001897818319968C911997828316968C91C9
:100A30008383DF91CF910895C098C29AB29BFECF75
:100A400085E18A95F1F70000C09A8AE18A95F1F76D
:100A500000C09EB1892F807295FD04C094E09093F0
:100A6000E701089581E00895C29AC29BFECF8AE112
:100A70008A95F1F700C0C09885E18A95F1F70000EA
:100A8000C298C09A779905C083E08093E70180E01F
:100A9000089581E008958EB98BE29AE19A95F1F775
:100AA00000C08DB9B29BFECF95E19A95F1F7000099
:100AB0008DB9769BF2CF8AE18A95F1F700C08FB1AC
:100AC0009FEF9FB9B89A0895CF92DF92EF92FF926D
:100AD0000F931F93CF93DF93082F8091E7018160DD
:100AE0008093E7019091D50190FD03C082608093CF
:100AF000E701BADF882319F1102FC5EDD1E0DD241D
:100B0000DA94CC24C3947E018FEFE81AF80A80911E
:100B1000E7018370D1F1C29888818FB980EFBBDF84
:100B2000B8988EEFB8DF9091E70180FF15C0892F4C
:100B3000817090FF0DC081E08093E70180E0DF913C
:100B4000CF911F910F91FF90EF90DF90CF9008957C
:100B500092E09093E701F3CF892F8570843061F4A0
:100B60008091D50181608093D501C092E7017CDF3F
:100B7000811117C09AE0EDCF9E7F9093E701E701C6
:100B8000115009F0C0CF81E0DACFB89880EF83DF51
:100B90008883113021F4DFB88EEF7DDFF0CF1FB8EE
:100BA000FBCF102FC5EDD1E0EBCF1092CD01880F18
:100BB00081608093D5011092E70181E0860F84DF88
:100BC000882319F039DF811103C08091E70108956E
:100BD00080E00895CF92DF92EF92FF920F931F93E0
:100BE000CF93DF938C01EB0187E0FB0111928A9593
:100BF000E9F7F80187818D836CE080E1D6DF780129
:100C0000F1E3EF0EF11C68018DE3C80ED11C90DBFF
:100C1000F701819391937F01EC15FD05C1F721E068
:100C20002883F80181A992A992FD2E8397FF02C023
:100C300081E08B83F80183A994A9292F2695269515
:100C4000298390FF02C081E08C83F80181A192A1E9
:100C500095FF02C081E08D83DF91CF911F910F91AD
:100C6000FF90EF90DF90CF900895CF93DF93EC014A
:100C700062E080E19ADF5CDB9AAB89AB93706AE05B
:100C800070E05CD62E853F85820F931F9D878C87F1
:100C9000DF91CF910895CF93C82F8091D401109206
:100CA000E7018F5F11DF1092D401882341F0C11159
:100CB00003C080E0CF910895BFDE8111FACF80910B
:100CC000E701F8CF1F93CF93DF93FC012489358987
:100CD000232B09F449C0EC0162E080E166DF28DBE8
:100CE0009AAB89AB97FF40C01092D40182E2809307
:100CF000D5018CE00CDB80E0CEDF68E081E155DFE0
:100D000017DB2DA93EA910E08217930719F09EABBF
:100D10008DAB11E00DDB2FA938AD8217930719F0C9
:100D200098AF8FAB11E004DB29AD3AAD8217930782
:100D300019F09AAF89AF11E0FBDA2BAD3CAD821709
:100D4000930781F09CAF8BAF2BAD3CAD49AD5AAD55
:100D50006FA978ADEC89FD898DA99EA9DF91CF910E
:100D60001F9109941111F0CFDF91CF911F91089538
:100D70000F931F93CF938C01C62F1092D40182E260
:100D80008093D501862FC3DA8C2F90E0880F991FAE
:100D9000800F911FFC01858D968DDFDA81E0CF9168
:100DA0001F910F9178CF1F93CF93DF93EC01162FF4
:100DB00089A19AA19D7F91609AA389A362E0CE0147
:100DC000D7DF89A19AA19E7F9AA389A3111106C09A
:100DD00062E0CE01DF91CF911F91CACFDF91CF9119
:100DE0001F9108951F93CF93DF93EC01162F89A1D4
:100DF0009AA193609AA389A362E0CE01B9DF89A189
:100E00009AA19E7F9AA389A3111106C062E0CE0128
:100E1000DF91CF911F91ACCFDF91CF911F910895BA
:100E20000F931F93CF93DF93EC010BA11CA10F70C5
:100E300011274E855F85FA014617570708F4FB0115
:100E40009801205F3F4F88899989E817F90708F4CE
:100E5000CF01841B950B6AE070E081D58B0186E0A1
:100E6000000F111F8A95E1F7022B132B89A19AA17C
:100E70008960906C9AA389A362E0CE0179DF1CA3FC
:100E80000BA363E0CE0174DF65E0CE01DF91CF916B
:100E90001F910F916DCFFC017387628761307105DF
:100EA00099F48CEF91E29787868780E39AE2918BA1
:100EB000808B8AE090E0938B828B30E020E034A33B
:100EC00023A363E0CF0154CF62307105C1F780EBFB
:100ED0009DE19787868780E39AE2918B808B8AE0F9
:100EE00090E0938B828B28E030E0E9CFFC016187B2
:100EF00025A136A1662329F0326036A325A364E03C
:100F000037CF3D7FFACFFC01608721A132A1662354
:100F100029F03F7B32A321A362E02ACF3064FACFCD
:100F2000FC01678381A192A19C013E7F32A321A392
:100F3000662331F0306232A321A362E0CF0118CFE3
:100F40009E7D92A381A3F9CFFC01668321A132A1EA
:100F5000662331F03061FC0132A321A362E008CFA7
:100F60003F7EF9CFFC01658327A130A5207F6F70FC
:100F7000262B30A727A365E0FBCE0F931F93CF93BB
:100F8000DF931092D40120E22093D5018C010F5DF4
:100F90001F4FEC01AB96F801819191918F01DDD942
:100FA0000C171D07C1F781E0DF91CF911F910F91C1
:100FB00072CECF93DF93EC01E881F9810680F7814F
:100FC000E02D60E009951AA219A2CE01DF91CF9120
:100FD000D4CFCF93DF93EC015FDC1092D40182E297
:100FE0008093D50181E057DE81112CC084E098E523
:100FF0009E8F8D8F18A21F8E83E090E09AA389A305
:10100000E881F981048CF58DE02D61E070E0CE017E
:10101000099580E098E09EA38DA381E890E998A7C8
:101020008FA31AA619A61CA61BA61EA61DA618AA43
:101030001FA6CE01A2DF81E090E09AA389A362E01F
:10104000CE0196DE81E0DF91CF91089581E023CE3D
:1010500023DC2DDCFBDF882331F06AE070E080E0E8
:1010600090E037DAF6CF0895CF92DF92EF92FF92B9
:101070000F931F93CF93DF937A018901892B91F509
:101080006CEC70E088E591E098D468E571E082E668
:1010900091E093D465ED70E088E491E08ED4E6E0D1
:1010A000F1E082E4DF011D928A95E9F71092570181
:1010B000E0916C01F0916D01309719F088E491E0B6
:1010C0000995E0917001F0917101309701F18DED7A
:1010D00090E0DF91CF911F910F91FF90EF90DF9003
:1010E000CF900994872F807F73FB772770F9782B37
:1010F0007A607093520110925301109254017A3227
:1011000009F4ACC068F47A50723008F452C0DF9130
:10111000CF911F910F91FF90EF90DF90CF900895A6
:101120007A34A9F786E0369527958A95E1F72F73EB
:10113000332794E0EE0CFF1C9A95E1F7B0E1EB2227
:10114000FF24C801892F992782958F708E299F29A6
:101150006CE370E0F3D3280F391F802F8F7190E07C
:101160006EE170E0EBD305FFB7C0A901481B590B36
:10117000CA01E0916E01F0916F01309741F2209128
:101180007201309173012817390709F290937301A6
:10119000809372016CE370E0E2D3962F682F892F61
:1011A000DF91CF911F910F91FF90EF90DF90CF9043
:1011B00009946370660FC12ED22EC62FD0E0AE0107
:1011C0004A5F5E4F7A01FA01EE5AFF4F8081C95F94
:1011D000DE4F181339C0FE01EE5AFF4F80812813ED
:1011E0002CC0FA01E45AFF4F1083FE01E45AFF4F6E
:1011F000208310926A01663001F562E671E088E5AD
:1012000091E0D2D3892BA9F468E471E082E691E001
:10121000CBD3892B71F062E671E088E491E0CDD305
:10122000E0916C01F0916D01309719F088E491E044
:10123000099580915E01C81207C0FE01EE5AFF4F6A
:101240008081D81609F463CFF701EE5AFF4F10835F
:10125000CE5ADF4F08831092600159CF862F8071DC
:10126000809355016F70C62FCC0FCC0F8091570122
:10127000C81748F4E0917001F0917101309719F0AE
:1012800086E091E00995C0935701809155019091B6
:101290005601891749F080935601E6E0F1E082E4B7
:1012A000DF011D928A95E9F7EC2FF0E0EA5FFE4F2F
:1012B000F082E1E0EC0FF0E0EA5FFE4FE082E2E076
:1012C000EC0FF0E0EA5FFE4F1083CD5FEC2FF0E013
:1012D000EA5FFE4F00831BCF820F931F4ACFFF921E
:1012E0000F931F93CF93DF9362E370E080E090E071
:1012F000F0D88CE891E0B9DC9093CA018093C901E1
:1013000009EC11E0CFE7D0E0F801F1908F01CE01B8
:10131000FFD2F81619F06F2DCE0102D32196C238F4
:10132000D10591F7DF91CF911F910F91FF90089513
:101330001F920F920FB60F9211242F933F938F930A
:101340009F93AF93BF938091FF0090910001A09174
:101350000101B09102013091F60023E0230F2D37F7
:1013600058F50196A11DB11D2093F6008093FF0052
:1013700090930001A0930101B09302018091F700C6
:101380009091F800A091F900B091FA000196A11D8A
:10139000B11D8093F7009093F800A093F900B093EB
:1013A000FA00BF91AF919F918F913F912F910F9034
:1013B0000FBE0F901F90189526E8230F0296A11DCF
:1013C000B11DD2CF1F920F920FB60F9211242F93FF
:1013D0003F934F935F936F937F938F939F93AF93BD
:1013E000BF93EF93FF9381E018D821E0892B09F098
:1013F00020E02093CC0183E010D821E0892B09F074
:1014000020E02093870180E28ABFFF91EF91BF9196
:10141000AF919F918F917F916F915F914F913F918C
:101420002F910F900FBE0F901F90189578948AB54A
:1014300082608ABD8AB581608ABD83B7826083BFBE
:1014400083B7816083BF89B7826089BF80B78260BC
:1014500080BF80B7816080BF329A319A309A379AC4
:101460008CB580648CBD81E07FD783E07DD784E03C
:101470007BD780E28BBF9AE095BB8ABF8FE790E075
:1014800047D28093C90180E890E042D28093CA019C
:1014900081E890E03DD28093CB018F3F19F488E042
:1014A0008093CB0160E971E080E090E012D8F4D93C
:1014B0008CE891E08EDD60E08CE891E031DD60E069
:1014C0008CE891E020DD6091CB018CE891E04ADD71
:1014D0004091C9015091CA0162E070E08CE891E04E
:1014E0009AD964E670E080E090E0F3D784E398E076
:1014F0009093A1018093A0018FE894E090937101F3
:101500008093700181E794E090936F0180936E0166
:10151000E091FB00F091FC00099528D8C8E6D2E0E4
:1015200060E7E62E62E0F62EFE011491812F06D8C8
:10153000811104C0FED71AD8812F00D82196EC164D
:10154000FD0691F7F6D712D880ECF8D780EAF6D7E7
:10155000F0D740D80BD88FEAF1D7EBD78091600055
:1015600094E089278093600035D881EC90E09093D7
:10157000FE008093FD00FDD710927401B0DE9EED59
:10158000492E90E0592ECBE7D1E022EE622E20E0EA
:10159000722E34E6832E912C4AE0C42ED12C58EEC4
:1015A000E52E50E0F52E06E011E080E0A82E80E068
:1015B000B82E84E032D7892B09F40BC18091CC017D
:1015C000882309F16091CB016F30D8F46F5F60938D
:1015D000CB018CE891E0C6DC82DE8091880190919D
:1015E0008901A0918A01B0918B0180599140A10994
:1015F000B1098093880190938901A0938A01B093E7
:101600008B011092CC0180918701882309F16091B0
:10161000CB016623D9F061506093CB018CE891E057
:10162000A1DC5DDE8091880190918901A0918A0101
:10163000B0918B0180599140A109B1098093880133
:1016400090938901A0938A01B0938B011092870136
:101650008CE891E037DB60E871E08CE891E0BADA81
:101660002FB7F8948091FF0090910001A0910101A3
:10167000B09102012FBF4091880150918901609182
:101680008A0170918B01481759076A077B0708F098
:101690009AC02FB7F8948091FF0090910001A0911B
:1016A0000101B09102012FBF80579E4FAF4FBF4F36
:1016B0008093880190938901A0938A01B0938B0154
:1016C00089D760E080E068D78AE992E02ED88091DF
:1016D00081011F928F935F924F92DF93CF9374D1CA
:1016E0008BE791E0F2D884E992E01FD88091CB019A
:1016F0001F928F937F926F92DF93CF9365D18BE789
:1017000091E0E3D885E791E0E0D861E080E044D75C
:101710008DB79EB70C960FB6F8949EBF0FBE8DBFC7
:1017200080918401882319F08EE892E0FED761E071
:1017300080E332D780918601882309F46EC087E860
:1017400092E0F3D780918301882319F089E792E032
:10175000ECD762E080E020D78091C9019091CA0166
:10176000B401FDD09B01B601FAD07F936F933F93F4
:101770002F93FF92EF92DF93CF9326D18BE791E0E7
:10178000A4D880E792E0D1D78DB79EB708960FB660
:10179000F8949EBF0FBE8DBF80917401882391F095
:1017A00088E491E092D863E080E0F6D6F8010190F9
:1017B0000020E9F7CF018A509140459788F586E0EF
:1017C00091E083D8D6D6A114B10409F4F2CE18D48E
:1017D000ECCE8091CC01882371F061E08CE891E03F
:1017E00001DB64E670E080E090E073D61092740153
:1017F00076DD1092CC0180918701882309F428CFEF
:1018000061E08CE891E0CFDA64E670E080E090E09F
:1018100060D61092740163DD19CF80E892E091CF19
:10182000109205012091050180910301909104011E
:101830002531E8F4F80101900020E9F7BF01675075
:101840007140820F911D8BD0FC01EA5FFE4F6081D9
:1018500080EE860F8E3548F480ED91E0F3D68091CE
:1018600005018F5F80930501DDCF60E2F5CF9C011C
:101870002F5F3F4F3093040120930301F801019043
:101880000020E9F79F01275031408217930708F4A1
:1018900099CF109204011092030186E091E03FD8A5
:1018A00091CFE0EDF1E01382128289EB90E0918319
:1018B000808388E298E09093FC008093FB0087E5AA
:1018C00094E09093F1008093F0008EE594E0909383
:1018D000F3008093F20086E298E09093F500809305
:1018E000F400EEE8F1E08AE1DF011D928A95E9F764
:1018F000ECE8F1E081E790E0918380838FE0848FD2
:10190000E6E0F1E08EE6DF011D928A95E9F70895A1
:10191000E199FECF9FBB8EBBE09A99278DB30895C6
:10192000262FE199FECF1CBA9FBB8EBB2DBB0FB6F5
:10193000F894E29AE19A0FBE019608950024552783
:1019400004C0080E591F880F991F009729F076953B
:101950006795B8F37105B9F7802D952F0895AA1BE7
:10196000BB1B51E107C0AA1FBB1FA617B70710F08A
:10197000A61BB70B881F991F5A95A9F780959095BC
:10198000BC01CD010895EE0FFF1F0590F491E02DED
:101990000994FC018191861721F08823D9F79927B2
:1019A00008953197CF010895FB01DC018D910190DD
:1019B00080190110D9F3990B0895FB01DC01019006
:1019C0000D920020E1F70895AEE0B0E0E9EEFCE012
:1019D000A3C20D891E8986E08C831A8309838FEF49
:1019E0009FE79E838D83AE01475E5F4F6F89788D41
:1019F000CE01019609D02F813885020F131FF801FF
:101A000010822E96E4E0A4C2ABE0B0E0E9E0FDE095
:101A100075C27C013B018A01FC0117821682838119
:101A200081FFBAC1CE0101965C01F7019381F301F8
:101A300093FD859193FF81913F01882309F449C16A
:101A4000853239F493FD859193FF81913F01853271
:101A500021F4B70190E0B9D1E8CF912C212C312CA1
:101A6000FFE1F31538F08B3211F190F4803209F177
:101A7000833229F137FC3CC020ED280F2A3050F585
:101A800036FE20C0892D6AE030D2922E980E06C014
:101A90008D3291F0803371F7689430F8F30193FD43
:101AA000859193FF81913F018111DACF21C0689424
:101AB00031F8689432F8F2CF689433F8EFCF689435
:101AC00034F8ECCF822D6AE010D2222E280E6894D2
:101AD00035F8E4CF8E3229F436FCFBC0689436F832
:101AE000DDCF8C3619F4689437F8D8CF8836B1F248
:101AF000982F9F7D95549330D8F0833691F183379A
:101B0000B1F1833509F05EC02801F2E04F0E511C9F
:101B1000F801C080D180692D70E036FC02C06FEF03
:101B20007FEFC6013CD14C01689437F882010AC0AE
:101B30000C5F1F4F2FE3298388248394912C650128
:101B4000E89437F833FE2AC0522C8114910459F5D9
:101B5000552009F46ACFB70180E290E036D15A945B
:101B6000F7CFF801808189830E5F1F4FE5CF2801F1
:101B7000F2E04F0E511CF801C080D180692D70E059
:101B800036FC02C06FEF7FEFC60114D14C01820119
:101B9000D7CFB70180E290E018D12A942814190415
:101BA00009F0B8F7D1CFF60137FC859137FE819166
:101BB0006F01B70190E009D151105A94F1E08F1AEA
:101BC0009108C3CF843619F0893609F073C0F80143
:101BD00037FE67C060817181828193810C5F1F4FE6
:101BE000F32DFF763F2E97FF09C090958095709555
:101BF00061957F4F8F4F9F4F689437F82AE030E010
:101C0000A50113D1C82ECA18DC2C832C36FE0CC0BB
:101C1000E89480F8C91440F434FE05C032FC03C0D7
:101C2000F32DFE7E8F2ED92C84FE90C0FE01EC0D8C
:101C3000F11D8081803309F082C0282D297E822EFB
:101C4000882D8870582E83FC8FC080FE89C09C2C04
:101C5000D21418F42C0C922C9D1884FE8BC0B70162
:101C600080E390E0B2D082FE08C088E790E081FE79
:101C700002C088E590E0B701A8D0C91408F486C076
:101C8000CA94D12C9FEFC91AD90ACA0CDB1CF601E1
:101C900082916F01B70190E098D0AC14BD04B9F700
:101CA00057CF60817181072E000C880B990B0E5F56
:101CB0001F4F96CFD32CE894D4F82AE030E0853734
:101CC00031F1232D297FD22E8F36F9F040F488355B
:101CD000A1F0F701868197812B96E2E12BC1803735
:101CE00049F08837B1F7D4FE02C06894D2F820E1F9
:101CF00030E00DC06894D4F8F6CF34FE03C0822FD4
:101D00008660D82E20E132E002C028E030E0F80101
:101D1000D7FE0EC060817181828193810C5F1F4F5D
:101D2000A50183D0C82ECA183D2CE89437F86CCF93
:101D30006081718190E080E00E5F1F4FF1CF82FCE7
:101D400002C0D3947DCFD394D3947ACF882D867854
:101D500009F476CFF6CFB70180E290E036D0D39485
:101D6000D214C8F3512C79CF522C5D18D21408F438
:101D700074CFF8CF882D867809F47FCF8BE281FE6F
:101D800080E287FC8DE2B70190E076CFB70180E377
:101D900090E01BD09A9471CF8FEF9FEF9DCFFC0105
:101DA0000590615070400110D8F7809590958E0F86
:101DB0009F1F0895FC016150704001900110D8F7F9
:101DC000809590958E0F9F1F08950F931F93CF932B
:101DD000DF93182F092FEB018B8181FD09C01FEFC5
:101DE0000FEF812F902FDF91CF911F910F910895C9
:101DF00082FF14C02E813F818C819D812817390775
:101E00003CF4E881F981CF0101969983888310839E
:101E10008E819F8101969F838E83E3CFE885F9852C
:101E2000812F0995892BA1F3DACFFA01AA2728304F
:101E300061F1203191F1E8946F936E7F6E5F7F4F77
:101E40008F4F9F4FAF4FB1E040D0B4E03ED0670F0F
:101E5000781F891F9A1FA11D680F791F8A1F911D66
:101E6000A11D6A0F711D811D911DA11D22D009F4B4
:101E700068943F91062E000C3019000C000C3019AC
:101E8000305D3193CEF6CF010895462F4770405D07
:101E90004193B3E00FD0C9F7F6CF462F4F70405DA6
:101EA0004A3318F0495D31FD4052419302D0A9F701
:101EB000EACFB4E0A6959795879577956795BA95FB
:101EC000C9F700976105710508959B01AC010A2EC1
:101ED00006945795479537952795BA95C9F7620F98
:101EE000731F841F951FA01D0895002480FD060EFA
:101EF000660F11F08695D1F7802D08952F923F92AD
:101F00004F925F926F927F928F929F92AF92BF9209
:101F1000CF92DF92EF92FF920F931F93CF93DF93B5
:101F2000CDB7DEB7CA1BDB0B0FB6F894DEBF0FBE12
:101F3000CDBF09942A88398848885F846E847D845F
:101F40008C849B84AA84B984C884DF80EE80FD8061
:101F50000C811B81AA81B981CE0FD11D0FB6F894D7
:0E1F6000DEBF0FBECDBFED010895F894FFCF98
:101F6E00B040253032643A25303264000000000063
:101F7E00003204E907D907B2072F04830726047637
:101F8E00072304A4072C040304FF03FB034B0707DA
:101F9E0004100735060B04F206D30690072904EA4F
:101FAE00050105DC016206EB03AC04E803CD03B6C4
:101FBE00034B04B303000000002203E001B003AFA3
:101FCE00031E000601207E204D487A002D2D2D2D5A
:101FDE002D2D2D2D002020202020202020002532E8
:101FEE0064002532642020002533642E2564000011
:00000001FF
